{
  "contractName": "Chelpis",
  "abi": [
    {
      "inputs": [],
      "stateMutability": "nonpayable",
      "type": "constructor"
    },
    {
      "anonymous": false,
      "inputs": [
        {
          "indexed": true,
          "internalType": "address",
          "name": "from",
          "type": "address"
        },
        {
          "indexed": true,
          "internalType": "address",
          "name": "to",
          "type": "address"
        },
        {
          "indexed": true,
          "internalType": "uint256",
          "name": "tokenId",
          "type": "uint256"
        }
      ],
      "name": "Transfer",
      "type": "event"
    },
    {
      "inputs": [
        {
          "internalType": "address",
          "name": "_owner",
          "type": "address"
        }
      ],
      "name": "balanceOf",
      "outputs": [
        {
          "internalType": "uint256",
          "name": "",
          "type": "uint256"
        }
      ],
      "stateMutability": "view",
      "type": "function"
    },
    {
      "inputs": [
        {
          "internalType": "uint256",
          "name": "",
          "type": "uint256"
        }
      ],
      "name": "chelpisX",
      "outputs": [
        {
          "internalType": "string",
          "name": "",
          "type": "string"
        }
      ],
      "stateMutability": "view",
      "type": "function"
    },
    {
      "inputs": [],
      "name": "name",
      "outputs": [
        {
          "internalType": "string",
          "name": "",
          "type": "string"
        }
      ],
      "stateMutability": "view",
      "type": "function"
    },
    {
      "inputs": [
        {
          "internalType": "uint256",
          "name": "_tokenId",
          "type": "uint256"
        }
      ],
      "name": "owenerOf",
      "outputs": [
        {
          "internalType": "address",
          "name": "",
          "type": "address"
        }
      ],
      "stateMutability": "view",
      "type": "function"
    },
    {
      "inputs": [],
      "name": "symbol",
      "outputs": [
        {
          "internalType": "string",
          "name": "",
          "type": "string"
        }
      ],
      "stateMutability": "view",
      "type": "function"
    },
    {
      "inputs": [
        {
          "internalType": "address",
          "name": "_owner",
          "type": "address"
        },
        {
          "internalType": "uint256",
          "name": "_index",
          "type": "uint256"
        }
      ],
      "name": "tokenOfOwnerByIndex",
      "outputs": [
        {
          "internalType": "uint256",
          "name": "",
          "type": "uint256"
        }
      ],
      "stateMutability": "view",
      "type": "function"
    },
    {
      "inputs": [
        {
          "internalType": "uint256",
          "name": "_index",
          "type": "uint256"
        }
      ],
      "name": "tokenbyIndex",
      "outputs": [
        {
          "internalType": "uint256",
          "name": "",
          "type": "uint256"
        }
      ],
      "stateMutability": "view",
      "type": "function"
    },
    {
      "inputs": [],
      "name": "totalSupply",
      "outputs": [
        {
          "internalType": "uint256",
          "name": "",
          "type": "uint256"
        }
      ],
      "stateMutability": "view",
      "type": "function"
    },
    {
      "inputs": [
        {
          "internalType": "string",
          "name": "_chelpis",
          "type": "string"
        }
      ],
      "name": "mint",
      "outputs": [],
      "stateMutability": "nonpayable",
      "type": "function"
    }
  ],
  "bytecode": "0x60806040523480156200001157600080fd5b506040518060400160405280600781526020017f4368656c706973000000000000000000000000000000000000000000000000008152506040518060400160405280600781526020017f4348454c504953000000000000000000000000000000000000000000000000008152508181816000908051906020019062000098929190620000bc565b508060019080519060200190620000b1929190620000bc565b5050505050620001d1565b828054620000ca906200019b565b90600052602060002090601f016020900481019282620000ee57600085556200013a565b82601f106200010957805160ff19168380011785556200013a565b828001600101855582156200013a579182015b82811115620001395782518255916020019190600101906200011c565b5b5090506200014991906200014d565b5090565b5b80821115620001685760008160009055506001016200014e565b5090565b7f4e487b7100000000000000000000000000000000000000000000000000000000600052602260045260246000fd5b60006002820490506001821680620001b457607f821691505b60208210811415620001cb57620001ca6200016c565b5b50919050565b610f1980620001e16000396000f3fe608060405234801561001057600080fd5b50600436106100935760003560e01c806370a082311161006657806370a082311461013457806395d89b4114610164578063ba9b3dcf14610182578063c9d0288f146101b2578063d85d3d27146101e257610093565b806306fdde031461009857806318160ddd146100b65780632f745c59146100d457806342cdc17d14610104575b600080fd5b6100a06101fe565b6040516100ad9190610968565b60405180910390f35b6100be610290565b6040516100cb91906109a3565b60405180910390f35b6100ee60048036038101906100e99190610a5c565b61029d565b6040516100fb91906109a3565b60405180910390f35b61011e60048036038101906101199190610a9c565b6102a5565b60405161012b91906109a3565b60405180910390f35b61014e60048036038101906101499190610ac9565b6102ac565b60405161015b91906109a3565b60405180910390f35b61016c61032e565b6040516101799190610968565b60405180910390f35b61019c60048036038101906101979190610a9c565b6103c0565b6040516101a99190610968565b60405180910390f35b6101cc60048036038101906101c79190610a9c565b61046c565b6040516101d99190610b05565b60405180910390f35b6101fc60048036038101906101f79190610c55565b6104e8565b005b60606000805461020d90610ccd565b80601f016020809104026020016040519081016040528092919081815260200182805461023990610ccd565b80156102865780601f1061025b57610100808354040283529160200191610286565b820191906000526020600020905b81548152906001019060200180831161026957829003601f168201915b5050505050905090565b6000600480549050905090565b600092915050565b6000919050565b60008073ffffffffffffffffffffffffffffffffffffffff168273ffffffffffffffffffffffffffffffffffffffff1614156102e757600080fd5b600360008373ffffffffffffffffffffffffffffffffffffffff1673ffffffffffffffffffffffffffffffffffffffff168152602001908152602001600020549050919050565b60606001805461033d90610ccd565b80601f016020809104026020016040519081016040528092919081815260200182805461036990610ccd565b80156103b65780601f1061038b576101008083540402835291602001916103b6565b820191906000526020600020905b81548152906001019060200180831161039957829003601f168201915b5050505050905090565b600881815481106103d057600080fd5b9060005260206000200160009150905080546103eb90610ccd565b80601f016020809104026020016040519081016040528092919081815260200182805461041790610ccd565b80156104645780601f1061043957610100808354040283529160200191610464565b820191906000526020600020905b81548152906001019060200180831161044757829003601f168201915b505050505081565b6000806002600084815260200190815260200160002060009054906101000a900473ffffffffffffffffffffffffffffffffffffffff169050600073ffffffffffffffffffffffffffffffffffffffff168173ffffffffffffffffffffffffffffffffffffffff1614156104df57600080fd5b80915050919050565b6009816040516104f89190610d3b565b908152602001604051809103902060009054906101000a900460ff161561051e57600080fd5b60088190806001815401808255809150506001900390600052602060002001600090919091909150908051906020019061055992919061082c565b506000600160088054905061056e9190610d81565b905061057a33826105b5565b600160098360405161058c9190610d3b565b908152602001604051809103902060006101000a81548160ff0219169083151502179055505050565b6105bf82826105cc565b6105c88161078e565b5050565b600073ffffffffffffffffffffffffffffffffffffffff168273ffffffffffffffffffffffffffffffffffffffff16141561063c576040517f08c379a000000000000000000000000000000000000000000000000000000000815260040161063390610e01565b60405180910390fd5b610645816107ba565b15610685576040517f08c379a000000000000000000000000000000000000000000000000000000000815260040161067c90610e6d565b60405180910390fd5b816002600083815260200190815260200160002060006101000a81548173ffffffffffffffffffffffffffffffffffffffff021916908373ffffffffffffffffffffffffffffffffffffffff1602179055506001600360008473ffffffffffffffffffffffffffffffffffffffff1673ffffffffffffffffffffffffffffffffffffffff16815260200190815260200160002060008282546107279190610e8d565b92505081905550808273ffffffffffffffffffffffffffffffffffffffff16600073ffffffffffffffffffffffffffffffffffffffff167fddf252ad1be2c89b69c2b068fc378daa952ba7f163c4a11628f55a4df523b3ef60405160405180910390a45050565b600481908060018154018082558091505060019003906000526020600020016000909190919091505550565b6000806002600084815260200190815260200160002060009054906101000a900473ffffffffffffffffffffffffffffffffffffffff169050600073ffffffffffffffffffffffffffffffffffffffff168173ffffffffffffffffffffffffffffffffffffffff161415915050919050565b82805461083890610ccd565b90600052602060002090601f01602090048101928261085a57600085556108a1565b82601f1061087357805160ff19168380011785556108a1565b828001600101855582156108a1579182015b828111156108a0578251825591602001919060010190610885565b5b5090506108ae91906108b2565b5090565b5b808211156108cb5760008160009055506001016108b3565b5090565b600081519050919050565b600082825260208201905092915050565b60005b838110156109095780820151818401526020810190506108ee565b83811115610918576000848401525b50505050565b6000601f19601f8301169050919050565b600061093a826108cf565b61094481856108da565b93506109548185602086016108eb565b61095d8161091e565b840191505092915050565b60006020820190508181036000830152610982818461092f565b905092915050565b6000819050919050565b61099d8161098a565b82525050565b60006020820190506109b86000830184610994565b92915050565b6000604051905090565b600080fd5b600080fd5b600073ffffffffffffffffffffffffffffffffffffffff82169050919050565b60006109fd826109d2565b9050919050565b610a0d816109f2565b8114610a1857600080fd5b50565b600081359050610a2a81610a04565b92915050565b610a398161098a565b8114610a4457600080fd5b50565b600081359050610a5681610a30565b92915050565b60008060408385031215610a7357610a726109c8565b5b6000610a8185828601610a1b565b9250506020610a9285828601610a47565b9150509250929050565b600060208284031215610ab257610ab16109c8565b5b6000610ac084828501610a47565b91505092915050565b600060208284031215610adf57610ade6109c8565b5b6000610aed84828501610a1b565b91505092915050565b610aff816109f2565b82525050565b6000602082019050610b1a6000830184610af6565b92915050565b600080fd5b600080fd5b7f4e487b7100000000000000000000000000000000000000000000000000000000600052604160045260246000fd5b610b628261091e565b810181811067ffffffffffffffff82111715610b8157610b80610b2a565b5b80604052505050565b6000610b946109be565b9050610ba08282610b59565b919050565b600067ffffffffffffffff821115610bc057610bbf610b2a565b5b610bc98261091e565b9050602081019050919050565b82818337600083830152505050565b6000610bf8610bf384610ba5565b610b8a565b905082815260208101848484011115610c1457610c13610b25565b5b610c1f848285610bd6565b509392505050565b600082601f830112610c3c57610c3b610b20565b5b8135610c4c848260208601610be5565b91505092915050565b600060208284031215610c6b57610c6a6109c8565b5b600082013567ffffffffffffffff811115610c8957610c886109cd565b5b610c9584828501610c27565b91505092915050565b7f4e487b7100000000000000000000000000000000000000000000000000000000600052602260045260246000fd5b60006002820490506001821680610ce557607f821691505b60208210811415610cf957610cf8610c9e565b5b50919050565b600081905092915050565b6000610d15826108cf565b610d1f8185610cff565b9350610d2f8185602086016108eb565b80840191505092915050565b6000610d478284610d0a565b915081905092915050565b7f4e487b7100000000000000000000000000000000000000000000000000000000600052601160045260246000fd5b6000610d8c8261098a565b9150610d978361098a565b925082821015610daa57610da9610d52565b5b828203905092915050565b7f455243373231206d696e74696e6720746f2061207a65726f2061646472657373600082015250565b6000610deb6020836108da565b9150610df682610db5565b602082019050919050565b60006020820190508181036000830152610e1a81610dde565b9050919050565b7f45524337323120697320616c7265616479206578697374000000000000000000600082015250565b6000610e576017836108da565b9150610e6282610e21565b602082019050919050565b60006020820190508181036000830152610e8681610e4a565b9050919050565b6000610e988261098a565b9150610ea38361098a565b9250827fffffffffffffffffffffffffffffffffffffffffffffffffffffffffffffffff03821115610ed857610ed7610d52565b5b82820190509291505056fea26469706673582212209a9701a13c1f639d72f4975e6ced8b1caf2f1ebb56e11713f3bacf6b55b92e8364736f6c634300080b0033",
  "immutableReferences": {},
  "source": "// SPDX-License-Identifier: MIT  \npragma solidity ^0.8.0;\n\nimport './ERC721Connector.sol';\n\ncontract Chelpis is ERC721Connector{\n\n    string[] public chelpisX;\n\n    mapping(string => bool) _chelpisExists;\n\n    function mint(string memory _chelpis)  public {\n        \n        require(!_chelpisExists[_chelpis]);\n        chelpisX.push(_chelpis);\n        uint _id = chelpisX.length - 1;   \n        _mint(msg.sender, _id);\n        _chelpisExists[_chelpis] = true;\n    }\n\n    constructor() ERC721Connector('Chelpis', 'CHELPIS'){\n       \n    }\n}",
  "sourcePath": "/Users/dorianliu/Desktop/NFT-dev/nft-marketplace/src/contracts/Chelpis.sol",
  "compiler": {
    "name": "solc",
    "version": "0.8.11+commit.d7f03943.Emscripten.clang"
  },
  "schemaVersion": "3.4.4",
  "updatedAt": "2022-01-13T12:56:44.230Z",
  "devdoc": {
    "kind": "dev",
    "methods": {},
    "version": 1
  },
  "userdoc": {
    "kind": "user",
    "methods": {},
    "version": 1
  }
}