{
  "contractName": "ERC721Enumerable",
  "abi": [
    {
      "anonymous": false,
      "inputs": [
        {
          "indexed": true,
          "internalType": "address",
          "name": "from",
          "type": "address"
        },
        {
          "indexed": true,
          "internalType": "address",
          "name": "to",
          "type": "address"
        },
        {
          "indexed": true,
          "internalType": "uint256",
          "name": "tokenId",
          "type": "uint256"
        }
      ],
      "name": "Transfer",
      "type": "event"
    },
    {
      "inputs": [
        {
          "internalType": "address",
          "name": "_owner",
          "type": "address"
        }
      ],
      "name": "balanceOf",
      "outputs": [
        {
          "internalType": "uint256",
          "name": "",
          "type": "uint256"
        }
      ],
      "stateMutability": "view",
      "type": "function"
    },
    {
      "inputs": [
        {
          "internalType": "uint256",
          "name": "_tokenId",
          "type": "uint256"
        }
      ],
      "name": "owenerOf",
      "outputs": [
        {
          "internalType": "address",
          "name": "",
          "type": "address"
        }
      ],
      "stateMutability": "view",
      "type": "function"
    },
    {
      "inputs": [
        {
          "internalType": "uint256",
          "name": "_index",
          "type": "uint256"
        }
      ],
      "name": "tokenbyIndex",
      "outputs": [
        {
          "internalType": "uint256",
          "name": "",
          "type": "uint256"
        }
      ],
      "stateMutability": "view",
      "type": "function"
    },
    {
      "inputs": [
        {
          "internalType": "address",
          "name": "_owner",
          "type": "address"
        },
        {
          "internalType": "uint256",
          "name": "_index",
          "type": "uint256"
        }
      ],
      "name": "tokenOfOwnerByIndex",
      "outputs": [
        {
          "internalType": "uint256",
          "name": "",
          "type": "uint256"
        }
      ],
      "stateMutability": "view",
      "type": "function"
    },
    {
      "inputs": [],
      "name": "totalSupply",
      "outputs": [
        {
          "internalType": "uint256",
          "name": "",
          "type": "uint256"
        }
      ],
      "stateMutability": "view",
      "type": "function"
    }
  ],
  "bytecode": "0x608060405234801561001057600080fd5b50610410806100206000396000f3fe608060405234801561001057600080fd5b50600436106100575760003560e01c806318160ddd1461005c5780632f745c591461007a57806342cdc17d146100aa57806370a08231146100da578063c9d0288f1461010a575b600080fd5b61006461013a565b604051610071919061026c565b60405180910390f35b610094600480360381019061008f9190610316565b610147565b6040516100a1919061026c565b60405180910390f35b6100c460048036038101906100bf9190610356565b61014f565b6040516100d1919061026c565b60405180910390f35b6100f460048036038101906100ef9190610383565b610156565b604051610101919061026c565b60405180910390f35b610124600480360381019061011f9190610356565b6101d8565b60405161013191906103bf565b60405180910390f35b6000600280549050905090565b600092915050565b6000919050565b60008073ffffffffffffffffffffffffffffffffffffffff168273ffffffffffffffffffffffffffffffffffffffff16141561019157600080fd5b600160008373ffffffffffffffffffffffffffffffffffffffff1673ffffffffffffffffffffffffffffffffffffffff168152602001908152602001600020549050919050565b60008060008084815260200190815260200160002060009054906101000a900473ffffffffffffffffffffffffffffffffffffffff169050600073ffffffffffffffffffffffffffffffffffffffff168173ffffffffffffffffffffffffffffffffffffffff16141561024a57600080fd5b80915050919050565b6000819050919050565b61026681610253565b82525050565b6000602082019050610281600083018461025d565b92915050565b600080fd5b600073ffffffffffffffffffffffffffffffffffffffff82169050919050565b60006102b78261028c565b9050919050565b6102c7816102ac565b81146102d257600080fd5b50565b6000813590506102e4816102be565b92915050565b6102f381610253565b81146102fe57600080fd5b50565b600081359050610310816102ea565b92915050565b6000806040838503121561032d5761032c610287565b5b600061033b858286016102d5565b925050602061034c85828601610301565b9150509250929050565b60006020828403121561036c5761036b610287565b5b600061037a84828501610301565b91505092915050565b60006020828403121561039957610398610287565b5b60006103a7848285016102d5565b91505092915050565b6103b9816102ac565b82525050565b60006020820190506103d460008301846103b0565b9291505056fea2646970667358221220959441e26d0a24e81ad33e201393749b6854d19ba82682bbcdda98930a219aa664736f6c634300080b0033",
  "immutableReferences": {},
  "source": "// SPDX-License-Identifier: MIT\npragma solidity ^0.8.0;\n\nimport './ERC721.sol';\n\ncontract ERC721Enumerable is ERC721{\n\n    uint256[] private _allTokens;\n\n    mapping(uint256 => uint256) private _allTokensIndex;\n    mapping(address => uint256[]) private _ownedTokens;\n    mapping(uint256 => uint256) private _ownedTokensIndex;\n\n    function tokenbyIndex(uint _index) external view returns(uint256){\n\n    }\n\n    function tokenOfOwnerByIndex(address _owner, uint256 _index) external view returns(uint256){\n\n    }\n\n    function _mint(address to, uint256 tokenId) internal override(ERC721){\n        super._mint(to, tokenId);\n        _addTokensToAllTotalSupply(tokenId);\n\n    }\n\n    function _addTokensToAllTotalSupply(uint tokenId) private {\n        _allTokens.push(tokenId);\n    }\n    function totalSupply() public view returns(uint256){\n        return _allTokens.length;\n    }\n}",
  "sourcePath": "/Users/dorianliu/Desktop/NFT-dev/nft-marketplace/src/contracts/ERC721Enumerable.sol",
  "compiler": {
    "name": "solc",
    "version": "0.8.11+commit.d7f03943.Emscripten.clang"
  },
  "schemaVersion": "3.4.4",
  "updatedAt": "2022-01-13T12:56:44.236Z",
  "devdoc": {
    "kind": "dev",
    "methods": {},
    "version": 1
  },
  "userdoc": {
    "kind": "user",
    "methods": {},
    "version": 1
  }
}